{
  "contractName": "MarketPlace",
  "abi": [
    {
      "constant": true,
      "inputs": [],
      "name": "owner",
      "outputs": [
        {
          "name": "",
          "type": "address"
        }
      ],
      "payable": false,
      "stateMutability": "view",
      "type": "function"
    },
    {
      "anonymous": false,
      "inputs": [
        {
          "indexed": true,
          "name": "ID",
          "type": "bytes32"
        },
        {
          "indexed": true,
          "name": "buyer",
          "type": "address"
        },
        {
          "indexed": false,
          "name": "totalAmount",
          "type": "uint256"
        },
        {
          "indexed": false,
          "name": "quantity",
          "type": "uint256"
        },
        {
          "indexed": false,
          "name": "amountSent",
          "type": "uint256"
        }
      ],
      "name": "logItemBought",
      "type": "event"
    },
    {
      "anonymous": false,
      "inputs": [
        {
          "indexed": false,
          "name": "ID",
          "type": "bytes32"
        },
        {
          "indexed": false,
          "name": "name",
          "type": "string"
        },
        {
          "indexed": false,
          "name": "price",
          "type": "uint256"
        },
        {
          "indexed": false,
          "name": "quantity",
          "type": "uint256"
        }
      ],
      "name": "logItemAdded",
      "type": "event"
    },
    {
      "anonymous": false,
      "inputs": [
        {
          "indexed": false,
          "name": "ID",
          "type": "bytes32"
        },
        {
          "indexed": false,
          "name": "name",
          "type": "string"
        },
        {
          "indexed": false,
          "name": "quantity",
          "type": "uint256"
        }
      ],
      "name": "logItemUpdated",
      "type": "event"
    },
    {
      "constant": false,
      "inputs": [
        {
          "name": "id",
          "type": "bytes32"
        },
        {
          "name": "quantity",
          "type": "uint256"
        }
      ],
      "name": "buy",
      "outputs": [],
      "payable": true,
      "stateMutability": "payable",
      "type": "function"
    },
    {
      "constant": false,
      "inputs": [
        {
          "name": "Id",
          "type": "bytes32"
        },
        {
          "name": "newQuantity",
          "type": "uint256"
        }
      ],
      "name": "update",
      "outputs": [],
      "payable": false,
      "stateMutability": "nonpayable",
      "type": "function"
    },
    {
      "constant": false,
      "inputs": [
        {
          "name": "name",
          "type": "string"
        },
        {
          "name": "price",
          "type": "uint256"
        },
        {
          "name": "quantity",
          "type": "uint256"
        }
      ],
      "name": "newProduct",
      "outputs": [
        {
          "name": "Id",
          "type": "bytes32"
        }
      ],
      "payable": false,
      "stateMutability": "nonpayable",
      "type": "function"
    },
    {
      "constant": true,
      "inputs": [
        {
          "name": "Id",
          "type": "bytes32"
        }
      ],
      "name": "getProduct",
      "outputs": [
        {
          "name": "",
          "type": "string"
        },
        {
          "name": "",
          "type": "uint256"
        },
        {
          "name": "",
          "type": "uint256"
        }
      ],
      "payable": false,
      "stateMutability": "view",
      "type": "function"
    },
    {
      "constant": true,
      "inputs": [],
      "name": "getProducts",
      "outputs": [
        {
          "name": "",
          "type": "bytes32[]"
        }
      ],
      "payable": false,
      "stateMutability": "view",
      "type": "function"
    },
    {
      "constant": true,
      "inputs": [
        {
          "name": "Id",
          "type": "bytes32"
        }
      ],
      "name": "getPrice",
      "outputs": [
        {
          "name": "",
          "type": "uint256"
        }
      ],
      "payable": false,
      "stateMutability": "view",
      "type": "function"
    },
    {
      "constant": false,
      "inputs": [],
      "name": "withdraw",
      "outputs": [
        {
          "name": "",
          "type": "bool"
        }
      ],
      "payable": true,
      "stateMutability": "payable",
      "type": "function"
    }
  ],
  "bytecode": "0x6080604052336000806101000a81548173ffffffffffffffffffffffffffffffffffffffff021916908373ffffffffffffffffffffffffffffffffffffffff160217905550611358806100536000396000f30060806040526004361061008e576000357c0100000000000000000000000000000000000000000000000000000000900463ffffffff1680630ddeb6321461009357806331d98b3f146100c15780633a20e9df146101065780633ccfd60b146101be5780638da5cb5b146101e0578063a58bb84a14610237578063c29b2f2014610272578063e6f26425146102de575b600080fd5b6100bf600480360381019080803560001916906020019092919080359060200190929190505050610377565b005b3480156100cd57600080fd5b506100f060048036038101908080356000191690602001909291905050506106b6565b6040518082815260200191505060405180910390f35b34801561011257600080fd5b5061013560048036038101908080356000191690602001909291905050506107b2565b6040518080602001848152602001838152602001828103825285818151815260200191508051906020019080838360005b83811015610181578082015181840152602081019050610166565b50505050905090810190601f1680156101ae5780820380516001836020036101000a031916815260200191505b5094505050505060405180910390f35b6101c66108bc565b604051808215151515815260200191505060405180910390f35b3480156101ec57600080fd5b506101f5610a9c565b604051808273ffffffffffffffffffffffffffffffffffffffff1673ffffffffffffffffffffffffffffffffffffffff16815260200191505060405180910390f35b34801561024357600080fd5b50610270600480360381019080803560001916906020019092919080359060200190929190505050610ac1565b005b34801561027e57600080fd5b50610287610e04565b6040518080602001828103825283818151815260200191508051906020019060200280838360005b838110156102ca5780820151818401526020810190506102af565b505050509050019250505060405180910390f35b3480156102ea57600080fd5b50610359600480360381019080803590602001908201803590602001908080601f01602080910402602001604051908101604052809392919081815260200183838082843782019150505050505091929192908035906020019092919080359060200190929190505050610e60565b60405180826000191660001916815260200191505060405180910390f35b6000808360016000826000191660001916815260200190815260200160002060030160009054906101000a900460ff16151561041b576040517f08c379a00000000000000000000000000000000000000000000000000000000081526004018080602001828103825260158152602001807f4974656d20646f6573206e6f742065786973742e20000000000000000000000081525060200191505060405180910390fd5b848480600160008460001916600019168152602001908152602001600020600201541015801561044b5750600081115b15156104e5576040517f08c379a000000000000000000000000000000000000000000000000000000000815260040180806020018281038252602c8152602001807f536f7272792c206e6f7420656e6f75676874207175616e7469747920696e207481526020017f68652073746f726167652e20000000000000000000000000000000000000000081525060400191505060405180910390fd5b6104ee876106b6565b945061050386866111cd90919063ffffffff16565b93503484111515156105a3576040517f08c379a00000000000000000000000000000000000000000000000000000000081526004018080602001828103825260298152602001807f416d6f756e742073656e74206973206c657373207468656e2074686520746f7481526020017f616c2070726963652e000000000000000000000000000000000000000000000081525060400191505060405180910390fd5b60016000886000191660001916815260200190815260200160002073__MarketLib_____________________________63489d909e9091886040518363ffffffff167c0100000000000000000000000000000000000000000000000000000000028152600401808381526020018281526020019250505060006040518083038186803b15801561063257600080fd5b505af4158015610646573d6000803e3d6000fd5b505050503373ffffffffffffffffffffffffffffffffffffffff1687600019167ff5363d075528e453f25073690d87589033d53ea1a3a862f53846215020dbce5286893460405180848152602001838152602001828152602001935050505060405180910390a350505050505050565b600080600080600160008660001916600019168152602001908152602001600020600101549250600a6001600087600019166000191681526020019081526020016000206002015411801561072a575060146001600087600019166000191681526020019081526020016000206002015411155b156107575760646002840281151561073e57fe5b049150610754828461120890919063ffffffff16565b92505b600a600160008760001916600019168152602001908152602001600020600201541115156107a75760646004840281151561078e57fe5b0490506107a4818461120890919063ffffffff16565b92505b829350505050919050565b60606000806001600085600019166000191681526020019081526020016000206000016001600086600019166000191681526020019081526020016000206001015460016000876000191660001916815260200190815260200160002060020154828054600181600116156101000203166002900480601f0160208091040260200160405190810160405280929190818152602001828054600181600116156101000203166002900480156108a85780601f1061087d576101008083540402835291602001916108a8565b820191906000526020600020905b81548152906001019060200180831161088b57829003601f168201915b505050505092509250925092509193909250565b60008060009054906101000a900473ffffffffffffffffffffffffffffffffffffffff1673ffffffffffffffffffffffffffffffffffffffff163373ffffffffffffffffffffffffffffffffffffffff161415156109a8576040517f08c379a00000000000000000000000000000000000000000000000000000000081526004018080602001828103825260318152602001807f596f7520646f6e27742068617665207065726d697373696f6e20746f2070657281526020017f666f726d207468697320616374696f6e2e00000000000000000000000000000081525060400191505060405180910390fd5b60003073ffffffffffffffffffffffffffffffffffffffff1631111515610a37576040517f08c379a00000000000000000000000000000000000000000000000000000000081526004018080602001828103825260118152602001807f4e6f7420656e6f756768742066756e647300000000000000000000000000000081525060200191505060405180910390fd5b3373ffffffffffffffffffffffffffffffffffffffff166108fc3073ffffffffffffffffffffffffffffffffffffffff16319081150290604051600060405180830381858888f19350505050158015610a94573d6000803e3d6000fd5b506001905090565b6000809054906101000a900473ffffffffffffffffffffffffffffffffffffffff1681565b6000809054906101000a900473ffffffffffffffffffffffffffffffffffffffff1673ffffffffffffffffffffffffffffffffffffffff163373ffffffffffffffffffffffffffffffffffffffff16141515610bab576040517f08c379a00000000000000000000000000000000000000000000000000000000081526004018080602001828103825260318152602001807f596f7520646f6e27742068617665207065726d697373696f6e20746f2070657281526020017f666f726d207468697320616374696f6e2e00000000000000000000000000000081525060400191505060405180910390fd5b8160016000826000191660001916815260200190815260200160002060030160009054906101000a900460ff161515610c4c576040517f08c379a00000000000000000000000000000000000000000000000000000000081526004018080602001828103825260158152602001807f4974656d20646f6573206e6f742065786973742e20000000000000000000000081525060200191505060405180910390fd5b60016000846000191660001916815260200190815260200160002073__MarketLib_____________________________63b05e825d9091846040518363ffffffff167c0100000000000000000000000000000000000000000000000000000000028152600401808381526020018281526020019250505060006040518083038186803b158015610cdb57600080fd5b505af4158015610cef573d6000803e3d6000fd5b505050507f4b07110dc0d187c175975e142912eea5333010caaacf3f0b1e2b654604652d2e836001600086600019166000191681526020019081526020016000206000016001600087600019166000191681526020019081526020016000206002015460405180846000191660001916815260200180602001838152602001828103825284818154600181600116156101000203166002900481526020019150805460018160011615610100020316600290048015610def5780601f10610dc457610100808354040283529160200191610def565b820191906000526020600020905b815481529060010190602001808311610dd257829003601f168201915b505094505050505060405180910390a1505050565b60606002805480602002602001604051908101604052809291908181526020018280548015610e5657602002820191906000526020600020905b81546000191681526020019060010190808311610e3e575b5050505050905090565b6000610e6a61125c565b6000809054906101000a900473ffffffffffffffffffffffffffffffffffffffff1673ffffffffffffffffffffffffffffffffffffffff163373ffffffffffffffffffffffffffffffffffffffff16141515610f54576040517f08c379a00000000000000000000000000000000000000000000000000000000081526004018080602001828103825260318152602001807f596f7520646f6e27742068617665207065726d697373696f6e20746f2070657281526020017f666f726d207468697320616374696f6e2e00000000000000000000000000000081525060400191505060405180910390fd5b846040518082805190602001908083835b602083101515610f8a5780518252602082019150602081019050602083039250610f65565b6001836020036101000a0380198251168184511680821785525050505050509050019150506040518091039020915060016000836000191660001916815260200190815260200160002060030160009054906101000a900460ff1615151561105a576040517f08c379a00000000000000000000000000000000000000000000000000000000081526004018080602001828103825260148152602001807f4974656d20616c72656164792065786973742e2000000000000000000000000081525060200191505060405180910390fd5b611065858585611226565b905080600160008460001916600019168152602001908152602001600020600082015181600001908051906020019061109f929190611287565b50602082015181600101556040820151816002015560608201518160030160006101000a81548160ff02191690831515021790555090505060028290806001815401808255809150509060018203906000526020600020016000909192909190915090600019169055507fa25ced81cc00179d339b0bd94938f48c95a808790b65315407d6ea833848eb908286868660405180856000191660001916815260200180602001848152602001838152602001828103825285818151815260200191508051906020019080838360005b8381101561118857808201518184015260208101905061116d565b50505050905090810190601f1680156111b55780820380516001836020036101000a031916815260200191505b509550505050505060405180910390a1509392505050565b60008060008414156111e25760009150611201565b82840290508284828115156111f357fe5b041415156111fd57fe5b8091505b5092915050565b600080828401905083811015151561121c57fe5b8091505092915050565b61122e61125c565b6080604051908101604052808581526020018481526020018381526020016001151581525090509392505050565b6080604051908101604052806060815260200160008152602001600081526020016000151581525090565b828054600181600116156101000203166002900490600052602060002090601f016020900481019282601f106112c857805160ff19168380011785556112f6565b828001600101855582156112f6579182015b828111156112f55782518255916020019190600101906112da565b5b5090506113039190611307565b5090565b61132991905b8082111561132557600081600090555060010161130d565b5090565b905600a165627a7a72305820e3c3875243b163c7c908379853e6e20335f8ab7bf24c851907387c343ab1f11f0029",
  "source": "//Project MarketPlace\r\n//create by Nadezhda Vasilevska\r\n\r\npragma solidity 0.4.24;\r\n\r\n//provides basic authorization control functions\r\ncontract Ownable {\r\n    address public owner;\r\n   \r\n    constructor() public {\r\n        owner = msg.sender;\r\n    }\r\n    \r\n    modifier onlyOwner() {\r\n        require(msg.sender == owner, \"You don't have permission to perform this action.\");\r\n        _;\r\n    }\r\n}\r\n\r\n//Math operations with safety checks that throw on error\r\n//prevents underflow or overflow\r\nlibrary SafeMath{\r\n    \r\n    function mul(uint256 a, uint256 b) internal pure returns (uint256) {\r\n        if (a == 0) {\r\n            return 0;\r\n        }\r\n        uint256 c = a * b;\r\n        assert(c / a == b);\r\n        return c;\r\n    }\r\n\r\n    function div(uint256 a, uint256 b) internal pure returns (uint256) {\r\n        //there is no case where this function can overflow/underflow\r\n        uint256 c = a / b;\r\n        return c;\r\n    }\r\n    \r\n    \r\n    function sub(uint256 a, uint256 b) internal pure returns (uint256) {\r\n        assert(b <= a);\r\n        return a - b;\r\n    }\r\n    \r\n    \r\n    function add(uint256 a, uint256 b) internal pure returns (uint256) {\r\n        uint256 c = a + b;\r\n        assert(c >= a);\r\n        return c;\r\n    }\r\n}\r\n\r\nlibrary MarketLib{\r\n    using SafeMath for uint;\r\n    \r\n    struct MarketItems{\r\n        string name;\r\n        uint price;\r\n        uint quantity;\r\n        bool exists; \r\n    }\r\n\r\n    function addQuantaty(MarketItems storage self, uint quantity) public {\r\n        self.quantity = self.quantity.add(quantity);\r\n    }\r\n    \r\n    function removeQuantity(MarketItems storage self, uint quantity) public {\r\n        self.quantity = self.quantity.sub(quantity);\r\n    }\r\n    \r\n    function CreateItem(string name, uint price, uint quantity) internal pure returns(MarketItems){\r\n        return MarketItems({name: name, price: price, quantity: quantity, exists: true});\r\n    }\r\n}\r\n\r\ncontract MarketPlace is Ownable {\r\n    \r\n    using SafeMath for uint;\r\n    using MarketLib for MarketLib.MarketItems;\r\n   \r\n    //bytes32 is items Id  (key, value)-use mapping instead of arrays\r\n    mapping(bytes32 => MarketLib.MarketItems) items;\r\n    bytes32[] onlyIds;\r\n    \r\n    modifier checkAvailability(bytes32 Id) {\r\n        require(items[Id].exists, \"Item does not exist. \");\r\n        _;\r\n    }\r\n    \r\n    modifier checkQuantity(bytes32 Id,uint quantity) {\r\n        require(items[Id].quantity >= quantity && quantity > 0, \"Sorry, not enought quantity in the storage. \");\r\n        _;\r\n    }\r\n    \r\n    //define contract events\r\n    event logItemBought(bytes32 indexed ID, address indexed buyer, uint totalAmount, uint quantity, uint amountSent);\r\n    event logItemAdded(bytes32  ID, string name, uint price, uint quantity);\r\n    event logItemUpdated(bytes32  ID, string name, uint quantity);\r\n    \r\n    //1. buy item by ID & quantity\r\n    function buy(bytes32 id, uint quantity) public \r\n    checkAvailability(id) \r\n    checkQuantity(id,quantity)\r\n    payable {\r\n       \r\n        uint currentPrice = getPrice(id);\r\n        uint totalPrice = currentPrice.mul(quantity);\r\n        require(totalPrice <= msg.value,\"Amount sent is less then the total price.\");\r\n       \r\n        items[id].removeQuantity(quantity);\r\n        emit logItemBought(id, msg.sender, totalPrice, quantity, msg.value); \r\n    } \r\n    \r\n    //2. update the stoch of an Item \r\n    function update(bytes32 Id, uint newQuantity) public \r\n    onlyOwner \r\n    checkAvailability(Id){\r\n        \r\n        items[Id].addQuantaty(newQuantity);\r\n        emit logItemUpdated(Id, items[Id].name, items[Id].quantity);\r\n    }\r\n    \r\n    //3. add new product \r\n    function newProduct(string name, uint price, uint quantity) public \r\n     onlyOwner returns(bytes32 Id) {\r\n     \r\n        Id = bytes32(keccak256(name));\r\n        \r\n        require(!items[Id].exists, \"Item already exist. \");\r\n       \r\n        MarketLib.MarketItems memory item = MarketLib.CreateItem(name, price, quantity);\r\n        items[Id] = item;\r\n        onlyIds.push(Id); \r\n        \r\n        emit logItemAdded(Id, name, price, quantity);\r\n    }\r\n   \r\n    //4. Get the name, price & stock  by items ID \r\n    function getProduct(bytes32 Id) public view returns(string, uint, uint) {\r\n        return(items[Id].name, items[Id].price, items[Id].quantity);\r\n    }\r\n    \r\n    //5. return an array of all product Ids. \r\n    function getProducts() public view returns(bytes32[]){\r\n        return onlyIds;\r\n    }\r\n    \r\n    //9. price can increase as the stock lowers \r\n    function getPrice(bytes32 Id) public view returns (uint) {\r\n        uint itemPrice = items[Id].price;\r\n        \r\n        if(items[Id].quantity > 10 && items[Id].quantity <= 20){\r\n            uint increaseBy2 = (itemPrice * 2) / 100;\r\n            itemPrice = itemPrice.add(increaseBy2);\r\n        }\r\n        \r\n        if(items[Id].quantity <= 10){\r\n            uint increaseBy4 = (itemPrice * 4) / 100;\r\n            itemPrice = itemPrice.add(increaseBy4);\r\n        }\r\n        \r\n        return itemPrice;\r\n    }\r\n    \r\n    //10. withdrow the funds from the contract\r\n    function withdraw() public payable onlyOwner returns (bool){\r\n        require(address(this).balance > 0, \"Not enought funds\");\r\n        msg.sender.transfer(address(this).balance);        \r\n        return true;\r\n    }\r\n    \r\n}",
  "sourcePath": "F:\\SoftUni\\03. Smart Contract Dev with Solidity\\ProjectFinal\\contracts\\MarketPlace.sol",
  "compiler": {
    "name": "solc",
    "version": "0.4.24+commit.e67f0147.Emscripten.clang"
  },
  "schemaVersion": "2.0.1",
  "updatedAt": "2018-08-01T16:15:57.860Z"
}