{
  "contractName": "MarketLib",
  "abi": [
    {
      "constant": false,
      "inputs": [
        {
          "name": "self",
          "type": "MarketLib.MarketItems storage"
        },
        {
          "name": "quantity",
          "type": "uint256"
        }
      ],
      "name": "addQuantaty",
      "outputs": [],
      "payable": false,
      "stateMutability": "nonpayable",
      "type": "function"
    },
    {
      "constant": false,
      "inputs": [
        {
          "name": "self",
          "type": "MarketLib.MarketItems storage"
        },
        {
          "name": "quantity",
          "type": "uint256"
        }
      ],
      "name": "removeQuantity",
      "outputs": [],
      "payable": false,
      "stateMutability": "nonpayable",
      "type": "function"
    }
  ],
  "bytecode": "0x61017f610030600b82828239805160001a6073146000811461002057610022565bfe5b5030600052607381538281f3007300000000000000000000000000000000000000003014608060405260043610610063576000357c0100000000000000000000000000000000000000000000000000000000900463ffffffff168063489d909e14610068578063b05e825d1461009f575b600080fd5b81801561007457600080fd5b5061009d60048036038101908080359060200190929190803590602001909291905050506100d6565b005b8180156100ab57600080fd5b506100d460048036038101908080359060200190929190803590602001909291905050506100f9565b005b6100ed81836002015461011c90919063ffffffff16565b82600201819055505050565b61011081836002015461013590919063ffffffff16565b82600201819055505050565b600082821115151561012a57fe5b818303905092915050565b600080828401905083811015151561014957fe5b80915050929150505600a165627a7a7230582071d3ac0b0910a4276b8461a9e51c0eb8cd15b8a07fd0fc86159043dba9cdaf420029",
  "source": "//Project MarketPlace\r\n//create by Nadezhda Vasilevska\r\n\r\npragma solidity 0.4.24;\r\n\r\n//provides basic authorization control functions\r\ncontract Ownable {\r\n    address public owner;\r\n   \r\n    constructor() public {\r\n        owner = msg.sender;\r\n    }\r\n    \r\n    modifier onlyOwner() {\r\n        require(msg.sender == owner, \"You don't have permission to perform this action.\");\r\n        _;\r\n    }\r\n}\r\n\r\n//Math operations with safety checks that throw on error\r\n//prevents underflow or overflow\r\nlibrary SafeMath{\r\n    \r\n    function mul(uint256 a, uint256 b) internal pure returns (uint256) {\r\n        if (a == 0) {\r\n            return 0;\r\n        }\r\n        uint256 c = a * b;\r\n        assert(c / a == b);\r\n        return c;\r\n    }\r\n\r\n    function div(uint256 a, uint256 b) internal pure returns (uint256) {\r\n        //there is no case where this function can overflow/underflow\r\n        uint256 c = a / b;\r\n        return c;\r\n    }\r\n    \r\n    \r\n    function sub(uint256 a, uint256 b) internal pure returns (uint256) {\r\n        assert(b <= a);\r\n        return a - b;\r\n    }\r\n    \r\n    \r\n    function add(uint256 a, uint256 b) internal pure returns (uint256) {\r\n        uint256 c = a + b;\r\n        assert(c >= a);\r\n        return c;\r\n    }\r\n}\r\n\r\nlibrary MarketLib{\r\n    using SafeMath for uint;\r\n    \r\n    struct MarketItems{\r\n        string name;\r\n        uint price;\r\n        uint quantity;\r\n        bool exists; \r\n    }\r\n\r\n    function addQuantaty(MarketItems storage self, uint quantity) public {\r\n        self.quantity = self.quantity.add(quantity);\r\n    }\r\n    \r\n    function removeQuantity(MarketItems storage self, uint quantity) public {\r\n        self.quantity = self.quantity.sub(quantity);\r\n    }\r\n    \r\n    function CreateItem(string name, uint price, uint quantity) internal pure returns(MarketItems){\r\n        return MarketItems({name: name, price: price, quantity: quantity, exists: true});\r\n    }\r\n}\r\n\r\ncontract MarketPlace is Ownable {\r\n    \r\n    using SafeMath for uint;\r\n    using MarketLib for MarketLib.MarketItems;\r\n   \r\n    //bytes32 is items Id  (key, value)-use mapping instead of arrays\r\n    mapping(bytes32 => MarketLib.MarketItems) items;\r\n    bytes32[] onlyIds;\r\n    \r\n    modifier checkAvailability(bytes32 Id) {\r\n        require(items[Id].exists, \"Item does not exist. \");\r\n        _;\r\n    }\r\n    \r\n    modifier checkQuantity(bytes32 Id,uint quantity) {\r\n        require(items[Id].quantity >= quantity && quantity > 0, \"Sorry, not enought quantity in the storage. \");\r\n        _;\r\n    }\r\n    \r\n    //define contract events\r\n    event logItemBought(bytes32 indexed ID, address indexed buyer, uint totalAmount, uint quantity, uint amountSent);\r\n    event logItemAdded(bytes32  ID, string name, uint price, uint quantity);\r\n    event logItemUpdated(bytes32  ID, string name, uint quantity);\r\n    \r\n    //1. buy item by ID & quantity\r\n    function buy(bytes32 id, uint quantity) public \r\n    checkAvailability(id) \r\n    checkQuantity(id,quantity)\r\n    payable {\r\n       \r\n        uint currentPrice = getPrice(id);\r\n        uint totalPrice = currentPrice.mul(quantity);\r\n        require(totalPrice <= msg.value,\"Amount sent is less then the total price.\");\r\n       \r\n        items[id].removeQuantity(quantity);\r\n        emit logItemBought(id, msg.sender, totalPrice, quantity, msg.value); \r\n    } \r\n    \r\n    //2. update the stoch of an Item \r\n    function update(bytes32 Id, uint newQuantity) public \r\n    onlyOwner \r\n    checkAvailability(Id){\r\n        \r\n        items[Id].addQuantaty(newQuantity);\r\n        emit logItemUpdated(Id, items[Id].name, items[Id].quantity);\r\n    }\r\n    \r\n    //3. add new product \r\n    function newProduct(string name, uint price, uint quantity) public \r\n     onlyOwner returns(bytes32 Id) {\r\n     \r\n        Id = bytes32(keccak256(name));\r\n        \r\n        require(!items[Id].exists, \"Item already exist. \");\r\n       \r\n        MarketLib.MarketItems memory item = MarketLib.CreateItem(name, price, quantity);\r\n        items[Id] = item;\r\n        onlyIds.push(Id); \r\n        \r\n        emit logItemAdded(Id, name, price, quantity);\r\n    }\r\n   \r\n    //4. Get the name, price & stock  by items ID \r\n    function getProduct(bytes32 Id) public view returns(string, uint, uint) {\r\n        return(items[Id].name, items[Id].price, items[Id].quantity);\r\n    }\r\n    \r\n    //5. return an array of all product Ids. \r\n    function getProducts() public view returns(bytes32[]){\r\n        return onlyIds;\r\n    }\r\n    \r\n    //9. price can increase as the stock lowers \r\n    function getPrice(bytes32 Id) public view returns (uint) {\r\n        uint itemPrice = items[Id].price;\r\n        \r\n        if(items[Id].quantity > 10 && items[Id].quantity <= 20){\r\n            uint increaseBy2 = (itemPrice * 2) / 100;\r\n            itemPrice = itemPrice.add(increaseBy2);\r\n        }\r\n        \r\n        if(items[Id].quantity <= 10){\r\n            uint increaseBy4 = (itemPrice * 4) / 100;\r\n            itemPrice = itemPrice.add(increaseBy4);\r\n        }\r\n        \r\n        return itemPrice;\r\n    }\r\n    \r\n    //10. withdrow the funds from the contract\r\n    function withdraw() public payable onlyOwner returns (bool){\r\n        require(address(this).balance > 0, \"Not enought funds\");\r\n        msg.sender.transfer(address(this).balance);        \r\n        return true;\r\n    }\r\n    \r\n}",
  "sourcePath": "F:\\SoftUni\\03. Smart Contract Dev with Solidity\\ProjectFinal\\contracts\\MarketPlace.sol",
  "compiler": {
    "name": "solc",
    "version": "0.4.24+commit.e67f0147.Emscripten.clang"
  },
  "schemaVersion": "2.0.1",
  "updatedAt": "2018-08-01T16:15:57.871Z"
}